:020000040800F2
:10000000A8040020692400083124000833240008D3
:1000100035240008372400083924000800000000B7
:100020000000000000000000000000003B24000869
:100030003D240008000000003F240008412400087F
:1000400095240008992400089D240008A124000894
:10005000A5240008A9240008AD240008B124000844
:10006000B5240008B9240008BD240008C1240008F4
:10007000C5240008C9240008CD240008D1240008A4
:10008000D5240008D9240008DD240008E124000854
:10009000E5240008E9240008ED240008F124000804
:1000A000F5240008F9240008FD24000801250008B3
:1000B00005250008092500080D2500081125000860
:1000C00015250008192500081D2500082125000810
:1000D00025250008292500082D25000831250008C0
:1000E00035250008392500083D2500084125000870
:1000F00045250008492500084D2500085125000820
:1001000055250008592500085D25000861250008CF
:1001100065250008692500086D250008712500087F
:1001200075250008792500087D250008812500082F
:1001300085250008892500088D25000891250008DF
:1001400095250008992500089D250008A12500088F
:10015000A5250008A9250008AD250008B12500083F
:10016000B5250008B9250008BD250008C1250008EF
:10017000C5250008C9250008CD250008000000009D
:10018000D1250008D525000810B50400002C01D1A8
:1001900001205FE0606A002806D16068B0F5827FC8
:1001A00006D00020E06103E00020206100206061B3
:1001B0000020A06294F85100002805D1002084F8A6
:1001C0005000200000F00FFC022084F8510020684D
:1001D000006830F0400021680860606810F48270A8
:1001E000A16811F404410843E16811F40061084377
:1001F000217C11F002010843217D11F00101084327
:10020000A16911F400710843217F11F038010843FE
:1002100094F8201011F080010843A16A11F40051F4
:10022000084321680860A069000C10F0040094F8ED
:10023000241011F010010843216848602068C0694B
:1002400030F400602168C86100206065012084F8F6
:100250005100002010BD2DE9FC4706000D001700DD
:100260001C005FF0000896F85000012801D1022020
:10027000CAE0012086F8500000F0F4FB8146BA463F
:1002800096F85100012802D002208046B4E0002DEB
:1002900003D0380080B2002802D101208046ABE0B4
:1002A000032086F85100002070653563B786F78615
:1002B0000020B0630020B0870020F0870020706429
:1002C00000203064B068B0F5004F0BD13068006892
:1002D00030F04000316808603068006850F48040B9
:1002E0003168086030680068400605D430680068EE
:1002F00050F0400031680860F068B0F5006F30D110
:100300007068002803D0504680B2012809D1306BB4
:1003100000883168C860306B801C3063F08E401EEE
:10032000F086F08E00284DD03068806880070AD5AE
:10033000306B00883168C860306B801C3063F08E91
:10034000401EF086EDE700F08DFBB0EB0900A04207
:1003500002D314F1010F01D1002CE2D10320804619
:100360004AE07068002803D0504680B2012809D1C5
:10037000306B007831680873306B401C3063F08E4E
:10038000401EF086F08E00281CD030688068800700
:100390000AD5306B007831680873306B401C3063CD
:1003A000F08E401EF086EDE700F05CFBB0EB09003C
:1003B000A04202D314F1010F01D1002CE2D103209D
:1003C000804619E04A462100300000F0B5FA0028C6
:1003D00001D020207065B068002808D1002000906E
:1003E0003068C06800903068806800900098706D38
:1003F000002801D001208046012086F8510000200D
:1004000086F850004046C0B2BDE8F6872DE9F843B3
:1004100006000D0017001C005FF000087068B0F5C2
:10042000827F0ED1B06800280BD1042086F85100DD
:1004300000943B009BB22A002900300000F0A4F891
:10044000A0E096F85000012801D102209AE0012096
:1004500086F8500000F006FB814696F8510001280E
:1004600002D00220804685E0002D03D0380080B203
:10047000002802D1012080467CE0042086F851004B
:1004800000207065B563B787F787002030630020D0
:10049000B0860020F0860020306400207064B068D0
:1004A000B0F5004F0BD13068006830F04000316883
:1004B00008603068006830F4804031680860306857
:1004C0000068400605D43068006850F0400031688C
:1004D0000860F06800281FD1F08F00283CD03068F9
:1004E0008068C0070AD53068007BB16B0870B06BBC
:1004F000401CB063F08F401EF087EDE700F0B2FAC9
:10050000B0EB0900A04202D314F1010F01D1002C7D
:10051000E2D1032080462DE0F08F00281CD0306807
:100520008068C0070AD53068C068B16B0880B06BBE
:10053000801CB063F08F401EF087EDE700F092FA68
:10054000B0EB0900A04202D314F1010F01D1002C3D
:10055000E2D1032080460DE04A462100300000F041
:100560009EF9002801D020207065706D002801D010
:1005700001208046012086F85100002086F85000B6
:100580004046C0B2BDE8F2832DE9FE4F07000D00E2
:10059000160098460C9C5FF001095FF0000A97F87E
:1005A0005000012801D102200AE1012087F8500003
:1005B00000F058FA834697F851008DF800007868EB
:1005C0000290ADF802809DF8000001280DD002983D
:1005D000B0F5827F06D1B868002803D19DF80000ED
:1005E000042802D002208246E2E0002D05D0002E31
:1005F00003D0404680B2002802D101208246D7E0D5
:1006000097F85100042802D0052087F851000020F7
:100610007865BE63A7F83E80A7F83C803D63A7F8E5
:100620003680A7F834800020386400207864386869
:100630000068400605D43868006850F0400039680A
:100640000860F868B0F5006F4CD17868002803D0D6
:10065000BDF80200012809D1386B00883968C860EC
:10066000386B801C3863F88E401EF886F88E0028A0
:1006700003D1F88F002800F08380386880688007F5
:1006800011D5F88E00280ED0B9F1010F0BD1386BBF
:1006900000883968C860386B801C3863F88E401E4B
:1006A000F8860020814638688068C0070ED5F88F2C
:1006B00000280BD03868C068B96B0880B86B801C04
:1006C000B863F88F401EF8870120814600F0CAF910
:1006D000B0EB0B00A042C9D314F1010FC6D0032028
:1006E000824665E07868002803D0BDF80200012842
:1006F00009D1386B007839680873386B401C38634F
:10070000F88E401EF886F88E002802D1F88F002857
:1007100036D038688068800711D5F88E00280ED052
:10072000B9F1010F0BD1386B007839680873386B59
:10073000401C3863F88E401EF886002081463868D9
:100740008068C0070ED5F88F00280BD03868C068C5
:10075000B96B0870B86B401CB863F88F401EF887FF
:100760000120814600F07EF9B0EB0B00A04202D3DD
:1007700014F1010F01D1002CC5D10320824617E0EE
:100780005A462100380000F0D7F8002804D0012094
:100790008246202078650BE0B868002808D1002048
:1007A00001903868C06801903868806801900198AD
:1007B000012087F85100002087F850005046C0B251
:1007C000BDE8FE8F2DE9FC4705000E001700984696
:1007D000DDF8289000F046F90400B8EB040419EBAA
:1007E000040400F03FF98246DFF8AC0100684001E4
:1007F000000D00FB04F00090286880683040B04293
:1008000001D1012000E000203900C9B2884243D064
:1008100018F1010FF0D000F025F9B0EB0A00A0426A
:1008200001D2002C2FD12868406830F0E000296800
:1008300048606868B0F5827F0DD1A868B0F5004FB8
:1008400003D0A868B0F5806F05D12868006830F043
:10085000400029680860A86AB0F5005F0BD12868DD
:10086000006830F40050296808602868006850F477
:10087000005029680860012085F85100002085F8A3
:100880005000032009E00098002801D10020040056
:100890000098401E0090AFE70020BDE8F6877CB5C9
:1008A00004000D0016006068B0F5827F0DD1A068CD
:1008B000B0F5004F03D0A068B0F5806F05D1206877
:1008C000006830F04000216808606068B0F5827F01
:1008D00021D1A068B0F5806F0ED000962B000022C9
:1008E00080212000FFF76EFF002823D0606D50F0BC
:1008F0002000606503201EE000962B0000220121ED
:100900002000FFF75FFF002814D0606D50F020003A
:10091000606503200FE000962B00002201212000DB
:10092000FFF750FF002805D0606D50F02000606593
:10093000032000E0002076BD7CB504000D00160009
:10094000154800681821B0FBF1F01449B0FBF1F133
:100950004FF47A70414301916068B0F5827F0ED107
:1009600000962B00002280212000FFF72BFF00289B
:100970000FD0606D50F02000606503200AE0019800
:10098000002806D00198401E01902068806800066B
:10099000F5D4002076BD00000400002040420F0086
:1009A00080B52B482B4901604FF4827141600021D2
:1009B00081600021C16000210161002141614FF48B
:1009C000007181613821C161002101620021416211
:1009D000002181620A21C162FFF7D6FB002801D005
:1009E00000F0F2F801BD10B586B004001422002119
:1009F00001A800F0EBF820681649884226D10020B3
:100A000000901548016851F400410160006810F43D
:100A1000004000900098002000901048016851F0BC
:100A200004010160006810F00400009000984FF489
:100A3000E0500190022002900020039003200490D7
:100A40000620059001A9064800F0CAF806B010BDBE
:100A50000C000020003C004040380240303802408A
:100A60000008024001480068704700BF9C00002059
:100A70007FB500F0E1F900F043F800F0F7F9FFF777
:100A80008FFF4A4C01234A4A4A49200000F03AFAB3
:100A9000207F012831D1484D012000905FF43023A0
:100AA0000D222900200000F0AAFB444E0D22310047
:100AB000280000F085FD002821D0022002900020AF
:100AC0000190012000905FF430230D2231002000BE
:100AD00000F08AFA012000905FF430230D222900F3
:100AE000200000F08CFB0D223100280000F068FD92
:100AF000002804D000F068F801E000F065F8FEE797
:100B000010B592B03021002206AC200000F08CFD20
:100B10001421002201AC200000F086FD002000908E
:100B20002748016851F080510160006810F0805042
:100B300000900098002000902248016851F4804104
:100B40000160006810F48040009000980120069039
:100B50005FF48030079002200C905FF480000D90CD
:100B600004200E90A8200F900220109004201190D5
:100B700006A800F0A1FD002801D000F025F80F2004
:100B8000019002200290002003904FF4A0500490A6
:100B90004FF480500590052101A800F083FF002844
:100BA00001D000F011F812B010BD00006400002068
:100BB000000C02400C0000208400002048240008A3
:100BC000403802400070004072B6FEE710B504469F
:100BD00010460A460146204600F026FD204610BD7C
:100BE000F8B50023002400250026102E80F0F9809F
:100BF000012717FA06F213000A681A4014009C42F3
:100C000040F0ED800A7912F00302012A04D00A793B
:100C100012F00302022A1BD1D0F808C05FF0030EC5
:100C200072001EFA02FE3CEA0E0CD1F80CE07200D3
:100C30001EFA02FE5EEA0C0CC0F808C04268B7401B
:100C4000BA434F68C7F30017B7403A4315004560F1
:100C50000A7912F00302032A10D0C7685FF0030C70
:100C600072001CFA02FC37EA0C07D1F808C07200C7
:100C70001CFA02FC5CEA07073D00C5600A7912F025
:100C80000302022A1AD13200D20800EB8202126A51
:100C90000F275FEA860C1CF01C0C17FA0CF7BA43FE
:100CA0000F695FEA860C1CF01C0C17FA0CF73A432C
:100CB00015003200D20800EB8202156207685FF06F
:100CC000030C72001CFA02FC37EA0C0791F804C00E
:100CD0001CF0030C72001CFA02FC5CEA07073D00E2
:100CE00005604A6812F4403F79D000220092DFF894
:100CF0001021176857F480471760126812F4804279
:100D00000092009A3F4F3200920857F822205FF07D
:100D10000F0C5FEA860E1EF00C0E1CFA0EFC32EA77
:100D20000C02DFF8E4C0604501D1002523E0374D17
:100D3000A84201D101251EE0354DA84201D102256E
:100D400019E0344DA84201D1032514E0324DA842E8
:100D500001D104250FE0314DA84201D105250AE05B
:100D60002F4DA84201D1062505E02E4DA84201D104
:100D7000072500E00825EDB25FEA860C1CF00C0C9C
:100D800015FA0CF52A433500AD0847F82520264F03
:100D90003D68A543D1F804C05FEACC2C00D52543BB
:100DA0003D60224F3A68A243D1F804C05FEA8C2C20
:100DB00000D522433A601E4D2F68A743D1F804C0E6
:100DC0005FEA8C3C00D527432F601A4A1568A5437B
:100DD000D1F804C05FEACC3C00D525431560761CF1
:100DE00003E7F1BD1300DBB2002B03D00B009BB275
:100DF000836103E00B009BB21B048361704700001A
:100E0000443802400838014000000240000402401B
:100E100000080240000C0240001002400014024092
:100E200000180240001C0240083C01400C3C0140FC
:100E3000043C0140003C014080B50B48016851F47E
:100E400000710160016851F480610160016851F432
:100E500080710160032000F036FF0F2000F062FF78
:100E600000F086FF002002BD003C024010B586B0B5
:100E70001422002101A8FFF7A9FE002000901F48BE
:100E8000016851F080010160016811F0800100915A
:100E9000009900210091016851F001010160016891
:100EA00011F001010091009900210091016851F0B9
:100EB00004010160016811F0040100910099002112
:100EC0000091016851F008010160006810F008000D
:100ED000009000980A4C012201212000FFF782FFB8
:100EE0000120019001200290002003900320049033
:100EF00001A92000FFF774FE06B010BD3038024093
:100F0000000C0240F8B506000C0015001F00002E72
:100F100001D1042067E0002C03D104203077307F1A
:100F200061E0002D03D104203077307F5BE0380092
:100F300080B2002803D104203077307F53E0642052
:100F400000F058FF346075603781002030773068DA
:100F50000068DFF8601588420FD030680068DFF85D
:100F60005815884209D030680068DFF8501588426B
:100F700003D003203077307F35E06421300000F06B
:100F800064FA002803D005203077307F2BE0300052
:100F900000F01BFAB07A1F2803D003203077307F8F
:100FA00021E0F07A262809D14FF48050B06130005A
:100FB00000F088FAB0F5007F04D10EE0032030770E
:100FC000307F10E04FF40071300000F08AFA002802
:100FD00003D003203077307F05E00A2000F00AFFBD
:100FE00001203077307FF2BD2DE9F84F83460C00A9
:100FF000904699460A9D0B9E0C9F02208BF81C0080
:10100000C2460020ADF80000404680B2002801D062
:10101000002C05D104208BF81C009BF81C00ECE090
:101020002800C0B2002801D01AF1020A504680B24E
:1010300040F20121884205DB04208BF81C009BF85C
:101040001C00DAE05FEAC95005D004208BF81C00D0
:101050009BF81C00D1E0DBF81800401E4002484518
:1010600005D204208BF81C009BF81C00C5E028006A
:10107000C0B2002806D0414689B2200000F079FABB
:10108000ADF800006421584600F0DFF9002805D0D3
:1010900005208BF81C009BF81C00AEE084208BF828
:1010A0001400DBF804008069BBF8081050EA014026
:1010B000DBF804108861642301221BF11401DBF8C2
:1010C000000000F075FE00208BF8110000208BF866
:1010D000120000208BF81300642303221BF111017E
:1010E000DBF8000000F064FE6423424692B2210067
:1010F000DBF8000000F05CFE2800C0B2002806D03B
:10110000642302226946DBF8000000F051FEDBF8A0
:1011100004008169BBF808000143DBF80400816129
:101120003000C0B2002803D083208BF8140002E006
:1011300088208BF81400DBF804008069BBF80810E5
:1011400050EA0140DBF804108861642301221BF19E
:101150001401DBF8000000F02BFE4846000C8BF871
:1011600011004846000A8BF812008BF81390642394
:1011700003221BF11101DBF8000000F019FEDBF87F
:1011800004008169BBF808000143DBF804008161B9
:101190003800C0B201280BD13000C0B2002803D003
:1011A000192000F027FE23E0042000F023FE1FE0BA
:1011B0003800C0B202281BD13000C0B200280BD0CA
:1011C0001921584600F041F9002811D005208BF86C
:1011D0001C009BF81C0010E00421584600F035F973
:1011E000002805D005208BF81C009BF81C0004E0AB
:1011F00001208BF81C009BF81C00BDE8F28F2DE944
:10120000FE4F82460C00170098460C9E02208AF87A
:101210001C00B9460020ADF80000380080B200285C
:1012200001D0002C05D104208AF81C009AF81C007B
:10123000C9E03000C0B2002801D019F102094846C7
:1012400080B240F20121884205DB04208AF81C00AC
:101250009AF81C00B7E05FEAC85005D004208AF86D
:101260001C009AF81C00AEE0DAF81800401E40029C
:10127000404505D204208AF81C009AF81C00A2E020
:101280006421504600F0E1F8002805D005208AF8D6
:101290001C009AF81C0096E0484680B200F0B0FDB1
:1012A0000500002D05D106208AF81C009AF81C00C4
:1012B00089E0D2208AF81400DAF804008069BAF8CC
:1012C000081050EA0140DAF8041088616423012212
:1012D0001AF11401DAF8000000F06AFD4046000C33
:1012E0008AF811004046000A8AF812008AF8138032
:1012F000642303221AF11101DAF8000000F058FD0E
:1013000000208AF81400642301221AF11401DAF88B
:10131000000000F04DFD642301221AF11401DAF8F7
:10132000000000F045FD642301221AF11401DAF8EF
:10133000000000F03DFD642301221AF11401DAF8E7
:10134000000000F035FD64234A4692B22900DAF825
:10135000000000F03EFDDAF804008169BAF80800E8
:101360000143DAF8040081613000C0B2002818D0CF
:10137000390089B2280000F0FCF8ADF80000022224
:101380006946380080B2284400F01AF9002808D0D5
:10139000280000F0D3FD07208AF81C009AF81C00F2
:1013A00011E0380080B202900195A346029A01999B
:1013B000584600F0C5FD280000F0C0FD01208AF865
:1013C0001C009AF81C00BDE8FE8F10B504009F2099
:1013D000207560688069218950EA014061688861F0
:1013E0006423012214F11401206800F0E1FC64235D
:1013F000052214F10A01206800F0EBFC60688169A5
:10140000208901436068816110BD10B50400D720B8
:10141000207560688069218950EA014061688861AF
:101420006423012214F11401206800F0C1FC64233C
:10143000022214F10F01206800F0CBFC6068816982
:10144000208901436068816110BDF8B504000D007A
:101450001B4F3E68D720207560688069218950EA5B
:101460000140616888616423012214F1140120683D
:1014700000F09EFC3868801BA84211D2642302222F
:1014800014F10F01206800F0A4FCE07B0006F1D508
:10149000606881692089014360688161002006E0FD
:1014A0006068816920890143606881610120F2BD23
:1014B000000000000030014000380040003C0040C7
:1014C0009C00002010B504002000FFF79EFFE07B89
:1014D000C00702D54FF4007001E04FF4047080B2F1
:1014E00010BD38B504000D00280080B2B0F5007FB3
:1014F00008D13D2020752A2060758020A075A62087
:10150000E0750FE0280080B2B0F5047F08D13D20DF
:1015100020752A2060758020A075A720E07501E065
:10152000012025E060688069218950EA01406168F6
:1015300088616423042214F11401206800F038FC4F
:1015400060688169208901436068816119212000F8
:10155000FFF77BFF002801D0012009E02000FFF702
:10156000B1FF290089B2884201D0012000E00020AB
:1015700032BD70B404004FF6FF7000252A000E0043
:1015800092B2B6B2B24218D22A0092B2A25C5040D5
:10159000002213001A0092B2082A0CDAC20706D5FC
:1015A00080B202004AF2010090EA520001E080B2EB
:1015B00040085B1CEEE76D1CE0E780B270BC704732
:1015C0000300002013F0030F09D0521E22BF13F8AE
:1015D000010B11F801CBB0EB0C00F3D0704711F008
:1015E000030F14D1121F22BF53F8040B51F804CB80
:1015F0006045F7D0121D0AD200BA9CFA8CFCB0EB01
:101600000C0038BF6FF0000088BF01207047521EE9
:1016100022BF13F8010B11F801CBB0EB0C00F6D090
:10162000521C08BF1046704762F30F2262F31F423C
:10163000401810F0030308D0C91A1FD3DB0748BFB6
:1016400000F8012D28BF20F8022D130030B41446F5
:101650001546103928BF20E93C00FAD8490728BFB1
:1016600020E90C0048BF40F8042D890028BF20F86D
:10167000022D48BF00F8012D30BC7047C91818BFB3
:1016800000F8012DCB0728BF00F8012D70470EE0B0
:1016900002684368024408305FEAC37C44BF4B449D
:1016A0005B1E52F804CB43F804CB091FF9D150F864
:1016B000041B0029ECD170472DE9F8430400002CED
:1016C00001D10120D8E12078C0075FD5DFF8AC0355
:1016D000016811F00C01042909D0006810F00C0019
:1016E00008280ED1DFF898030068400209D5DFF81A
:1016F00094030068800349D56068002846D1012022
:10170000BAE16068B0F5803F06D1DFF87803016880
:1017100051F48031016018E06068B0F5A02F0AD163
:10172000DFF86003016851F480210160016851F421
:101730008031016009E0DFF84C03016831F4803149
:101740000160016831F480210160606800280ED0DA
:10175000FFF788F90500DFF82C030068800315D433
:10176000FFF780F9401B6528F5D3032084E1FFF7DC
:1017700079F90500DFF80C030068800306D5FFF750
:1017800071F9401B6528F5D3032075E120788007A7
:101790004CD5DFF8E802016811F00C0F08D00068A2
:1017A00010F00C00082814D1B5480068400210D48D
:1017B000B4480168890704D5E168012901D00120F6
:1017C0005AE1016831F0F801226951EAC201016071
:1017D0002CE0E068002818D00120AB490860FFF732
:1017E00041F90500A7480168890706D4FFF73AF9CF
:1017F000401B0328F6D303203EE1016831F0F801D5
:10180000226951EAC201016010E000209E4908608F
:10181000FFF728F905009B480068800706D5FFF709
:1018200021F9401B0328F6D3032025E12078000787
:1018300024D56069002810D0012094490860FFF782
:1018400011F9050092480068800717D4FFF70AF9DC
:10185000401B0328F6D303200EE100208B490860CB
:10186000FFF700F905008A480068800706D5FFF7F2
:10187000F9F8401B0328F6D30320FDE02078400749
:101880007CD50027DFF80C82D8F80000C0000FD408
:1018900000200090D8F8000050F08050C8F80000F8
:1018A000D8F8000010F08050009000980120070048
:1018B000DFF8E491D9F80000C00513D4D9F800008E
:1018C00050F48070C9F80000FFF7CCF80500D9F893
:1018D0000000C00506D4FFF7C5F8401B0328F6D367
:1018E0000320C9E0A068012805D16C48016851F0C7
:1018F0000101016015E0A068052809D16748016869
:1019000051F004010160016851F00101016008E03B
:1019100062480168490849000160016831F004012A
:101920000160A06800280FD0FFF79CF805005B4815
:101930000068800718D4FFF795F8401B41F2893101
:101940008842F4D3032097E0FFF78CF80500534852
:101950000068800708D5FFF785F8401B41F2893100
:101960008842F4D3032087E03800C0B2012805D1B3
:10197000D8F8000030F08050C8F80000A0690028B6
:1019800079D03E48006810F00C00082847D0A069C4
:10199000022833D1424F00203860FFF763F88046B9
:1019A000DFF8E090D9F80000800107D5FFF75AF87A
:1019B000B0EB08000328F3D303205DE0E169206A5F
:1019C0000143606A51EA8011A06A4008401E51EA52
:1019D0000041E06A51EA0061294801600120386055
:1019E000FFF740F80500D9F80000800143D4FFF765
:1019F00039F8401B0328F6D303203DE00020284996
:101A00000860FFF72FF805001E480068800132D5F6
:101A1000FFF728F8401B0328F6D303202CE0A06929
:101A2000012801D1012027E0154800680600A069BF
:101A300001281ED016F48000E169884219D116F001
:101A40003F00216A884214D147F6C0703040616A75
:101A5000B0EB811F0DD116F44030A16A4908491E30
:101A6000B0EB014F05D116F07060E16AB0EB016F89
:101A700001D0012000E00020BDE8F28308380240D8
:101A8000043802400038024000004742800E4742BE
:101A90007438024040380240007000407038024004
:101AA000600047422DE9F04104000D00002C01D1F7
:101AB000012095E04B4F386810F00700A84207D28C
:101AC0003D70386810F00700A84201D0012087E07F
:101AD0002078800716D52078400704D54248016851
:101AE00051F4E05101602078000704D53E480168B8
:101AF00051F4604101603C490A6832F0F002A0688C
:101B000002430A602078C00738D56068012805D1F3
:101B100036480068800313D4012061E06068022821
:101B200002D06068032805D130480068800107D4DE
:101B3000012055E02D480068800701D401204FE0C6
:101B4000DFF8A480D8F80010890889006068014394
:101B5000C8F80010FEF786FF0600D8F8000010F065
:101B60000C006168B0EB810F08D0FEF77BFF801B93
:101B700041F289318842F0D3032031E0386810F017
:101B80000700854207D23D70386810F00700A84270
:101B900001D0012024E02078400706D512490A68C8
:101BA00032F4E052E06802430A602078000707D56B
:101BB0000D48016831F46041226951EAC2010160B7
:101BC00000F012FA0A49084A1268C2F30312895C4B
:101BD000C840084908600848006800F0A3F80020E1
:101BE000BDE8F081003C0240083802400038024065
:101BF00058240008040000200000002010B410F059
:101C00000703DFF8044122684FF6FF010A4052EA59
:101C10000322DFF8F8100A43226010BC7047DFF897
:101C2000E8000068C0F30220704710B4020052B20E
:101C3000002A05D40A01364B040064B21A5508E0A4
:101C40000A01344B040064B214F00F04234403F877
:101C5000042C10BC704770B4030013F00704D4F1D7
:101C60000700052801D3042001E0D4F10700251D59
:101C7000072D01D2002500E0E51E012616FA00F02E
:101C8000401E0140A94016FA05F56D1E2A40114379
:101C9000080070BC704710B50400601EB0F1807F72
:101CA00001D301200EE0601E1B4908600F215FF088
:101CB000FF30FFF7BAFF00201849086007201849D5
:101CC0000860002010BD10B504002000FFF796FF4B
:101CD00010BD2DE9F04104000D0016000027FFF7AC
:101CE0009EFF8046320029004046FFF7B4FF010006
:101CF000200040B2FFF799FFBDE8F08110B5040065
:101D00002000FFF7C8FF10BD0CED00E00000FA0551
:101D100000E400E018ED00E014E000E018E000E06E
:101D200010E000E010B504004FF47A700D49097816
:101D3000B0FBF1F00C490968B1FBF0F0FFF7DEFFF2
:101D4000002801D001200CE0102C09D20022210033
:101D50005FF0FF30FFF7BDFF04480460002000E0A3
:101D6000012010BD08000020040000200000002019
:101D700081B0002000900C48016851F4804101605E
:101D8000006810F480400090009800200090074800
:101D9000016851F080510160006810F0805000909F
:101DA000009801B0704700BF4438024040380240FC
:101DB000F8B504000D0016001F003B00320092B27F
:101DC00029002000FEF747FA002801D0FEF7FCFEAC
:101DD000F1BDF8B504000D0016001F003B003200F5
:101DE00092B229002000FEF711FB002801D0FEF777
:101DF000EBFEF1BD10B50400200000F043F910BD6A
:101E000010B50446AFF30080204600F005F8044604
:101E1000AFF30080204610BDF8B500F10F04E408D0
:101E2000E400A0422BD2082C04D2082402E008309F
:101E300000F047F8DFF800211368190005D10020F1
:101E400007E00568A5420DD2011D08680028F8D1F9
:101E50001868111D00E0191D0B6883420BD01D6826
:101E6000A542F8D359B10B6818680838A04208D2C7
:101E7000586808600FE000F019F90028D7D1002059
:101E8000F2BD181908601D1D586828511E680F689A
:101E9000361B3E601C60096800291DBF4868002889
:101EA000081D0020106003F10800F2BD10B5040009
:101EB00006D0AFF30080204600F003F8AFF30080B7
:101EC00010BD002800D1704770B4A0F1080213685B
:101ED000072B2ED913F0070F2BD1DFF85C40616878
:101EE00009B18A4203D25160626015E00146486838
:101EF00008B19042FAD308680E18B24219D396423C
:101F000003D11B180B600A4606E0486810B1134461
:101F100098420ED350604A60506850B11368D5188B
:101F2000854206D1002626600168CB181360406800
:101F3000506070BC7047000094000020FFF7B6BFEF
:101F400062B38B0708D0521E11F8013B00F8013B29
:101F500000F024808B07F6D1830740F0208000BF7B
:101F6000103A07D330B4B1E83810103AA0E838106E
:101F7000F9D230BC530724BFB1E80810A0E808101C
:101F800044BF51F8043B40F8043BD20724BF31F86A
:101F9000022B20F8022B44BF0B7803707047121FEE
:101FA00017D35B0009D151F8043B20F8023B1B0C0E
:101FB000121F20F8023BF6D20BE051F8043B00F868
:101FC000013B1B0A20F8023B1B0C121F00F8013BCF
:101FD000F3D238BF121D521E24BF11F8013B00F886
:101FE000013BF8D8704700002DE9F041002400259E
:101FF000002600271F48006810F00C00002804D0BD
:10200000042804D0082804D031E01B4830E01B48E5
:102010002EE0DFF86C80D8F8000010F03F000400DC
:10202000D8F8000040020CD5D8F80000C0F38810A2
:102030001249A1FB00012200002300F04DF8050029
:102040000BE0D8F80000C0F388100B49A1FB000199
:102050002200002300F040F80500D8F80000C0F38B
:102060000140401C40000600B5FBF6F000E00248CD
:10207000BDE8F081083802400024F40000127A0024
:102080000438024070B50400FEF7ECFC05002600A1
:1020900016F1010F02D0044800783618FEF7E2FC72
:1020A000401BB042FAD370BD080000200749086801
:1020B00008B1002070470648C008C0000860054904
:1020C000C908C900091A0160704700BFA0000020BC
:1020D000AF040020A8060020BBBBE1B1B2F5803FF1
:1020E00080F07E80022A1ED98C46B1FBF2F102FB01
:1020F00011C31B0443EA1043B3FBF2FC02FB1C3385
:1021000080B240EA0343B3FBF2F002FB103240EA34
:102110000C4000237047022A05D98446B0FBF2F038
:1021200002FB10C270474AB105D100F00102490814
:102130005FEA3000704700220023704700F0E4B8E7
:102140000B000200002100207047904271EB030C4D
:10215000F6D3B3F5803F2FD2F0B5B3FA83F7B1FAD7
:1021600081F4A7F10F0E3D1B5340CEF1200602FA79
:102170000EF2F3415340B5F10F0746D80F3C2C4403
:102180004140C4F12006A040F1414140B1FBF3F6CB
:1021900003FB1611A2FB0645001BA94102D2761EC5
:1021A0008018594180EA010221FA0EF362FA0EF218
:1021B00000215A403046F0BD30B4B1FBF3FC03FBC4
:1021C0001C11A2FB0C45001BA94103D2ACF1010C70
:1021D0008018594130BC02460B46604600217047CA
:1021E000B2F1807F65D3F0B5B2FA82F7B1FA81F42B
:1021F000C7F10F063D1B22FA06F307F1110EF2415B
:1022000020355A40B5F10F07B8D94140C4F1200636
:10221000A040F1414140B1FBF3FC03FB1C11A2FBC8
:102220000C45001BA94103D2BCF1010C8018594197
:102230000F2F12D30F3FC90341EA5041B1FBF3F610
:1022400003FB1611A2FB0645D4EBC030A94102D214
:10225000761E8018594146EACC3C07B34140C7F18D
:102260002006B840F1414140B1FBF3F603FB1611E3
:10227000A2FB0645001BA94102D2761E80185941D7
:1022800080EA010221FA0EF3C7F1200462FA0EF28D
:102290000CFA07F05A402CFA04F13043F0BD80EA02
:1022A000010221FA0EF3002162FA0EF260465A4052
:1022B000F0BD8C46B1FBF2F102FB11C31B0243EAF5
:1022C0001063B3FBF2FC02FB1C331B024CEA002040
:1022D00043EA1063B3FBF2FC02FB1C331B024CEA23
:1022E000002043EA1063B3FBF2FC02FB1C331B0229
:1022F0004CEA002043EA1063B3FBF2FC02FB1C3201
:102300004CEA002000237047704730B4002512E0EB
:1023100050F8042BD30744BF4A44521E091F042916
:1023200042F8045BFAD213468C0744BF15809B1C0D
:10233000C90748BF1D7050F8041B0029E8D130BC04
:102340007047000010B5074979441831064C7C44A9
:10235000163404E00A68081D114488470146A1426A
:10236000F8D110BD2C0000004C0000004EF6885142
:10237000CEF20001086840F470000860BFF34F8F90
:10238000BFF36F8F4FF00170E1EE100A704700004D
:102390007BFFFFFF980000000C0000200000000001
:1023A000EFF2FFFF0C000000E00000000000002042
:1023B0000000000000F00DF8002801D0FFF7C2FF78
:1023C000AFF300800020AFF30080FEF751FB00F078
:1023D00002F80120704700F001B8000007463846B7
:1023E00000F002F8FBE7000080B5AFF30080024A7E
:1023F00011001820ABBEFBE726000200054801468D
:1024000003B4684680F30988AFF30080FFF7AEFF9E
:10241000FFF7D0FFA5EDF5FE03480168034A1278E7
:1024200089180160704700BF9C0000200800002050
:10243000FEE7FEE7FEE7FEE7FEE7704770477047FE
:1024400080B5FFF7E9FF01BD010203040506070897
:1024500009004142430000000000000000000000AD
:1024600001020304060708090148804701480047A4
:1024700079240008FD2300080248016851F4700126
:102480000160704788ED00E0100000000024F400B7
:1024900001000000FFF7FEBFFFF7FEBFFFF7FEBF22
:1024A000FFF7FEBFFFF7FEBFFFF7FEBFFFF7FEBF60
:1024B000FFF7FEBFFFF7FEBFFFF7FEBFFFF7FEBF50
:1024C000FFF7FEBFFFF7FEBFFFF7FEBFFFF7FEBF40
:1024D000FFF7FEBFFFF7FEBFFFF7FEBFFFF7FEBF30
:1024E000FFF7FEBFFFF7FEBFFFF7FEBFFFF7FEBF20
:1024F000FFF7FEBFFFF7FEBFFFF7FEBFFFF7FEBF10
:10250000FFF7FEBFFFF7FEBFFFF7FEBFFFF7FEBFFF
:10251000FFF7FEBFFFF7FEBFFFF7FEBFFFF7FEBFEF
:10252000FFF7FEBFFFF7FEBFFFF7FEBFFFF7FEBFDF
:10253000FFF7FEBFFFF7FEBFFFF7FEBFFFF7FEBFCF
:10254000FFF7FEBFFFF7FEBFFFF7FEBFFFF7FEBFBF
:10255000FFF7FEBFFFF7FEBFFFF7FEBFFFF7FEBFAF
:10256000FFF7FEBFFFF7FEBFFFF7FEBFFFF7FEBF9F
:10257000FFF7FEBFFFF7FEBFFFF7FEBFFFF7FEBF8F
:10258000FFF7FEBFFFF7FEBFFFF7FEBFFFF7FEBF7F
:10259000FFF7FEBFFFF7FEBFFFF7FEBFFFF7FEBF6F
:1025A000FFF7FEBFFFF7FEBFFFF7FEBFFFF7FEBF5F
:1025B000FFF7FEBFFFF7FEBFFFF7FEBFFFF7FEBF4F
:1025C000FFF7FEBFFFF7FEBFFFF7FEBFFFF7FEBF3F
:0825D000FFF7FEBFFFF7FEBF9D
:04000005080023FDCF
:00000001FF
