:020000040800F2
:10000000B0040020091C0008E51B0008E71B0008DD
:10001000E91B0008EB1B0008ED1B000800000000B6
:10002000000000000000000000000000EF1B0008BE
:10003000F11B000800000000F31B0008F51B00087E
:10004000291C00082D1C0008311C0008351C000864
:10005000391C00083D1C0008411C0008451C000814
:10006000491C00084D1C0008511C0008551C0008C4
:10007000591C00085D1C0008611C0008651C000874
:10008000691C00086D1C0008711C0008751C000824
:10009000791C00087D1C0008811C0008851C0008D4
:1000A000891C00088D1C0008911C0008951C000884
:1000B000991C00089D1C0008A11C0008A51C000834
:1000C000A91C0008AD1C0008B11C0008B51C0008E4
:1000D000B91C0008BD1C0008C11C0008C51C000894
:1000E000C91C0008CD1C0008D11C0008D51C000844
:1000F000D91C0008DD1C0008E11C0008E51C0008F4
:10010000E91C0008ED1C0008F11C0008F51C0008A3
:10011000F91C0008FD1C0008011D0008051D000851
:10012000091D00080D1D0008111D0008151D0008FF
:10013000191D00081D1D0008211D0008251D0008AF
:10014000291D00082D1D0008311D0008351D00085F
:10015000391D00083D1D0008411D0008451D00080F
:10016000491D00084D1D0008511D0008551D0008BF
:10017000591D00085D1D0008611D000800000000F9
:10018000651D0008691D000838B5040001D1012073
:1001900032BD606A30B96068B0F5827F05D0002159
:1001A000E16102E00020206160610020A06204F1B2
:1001B0005005687820B900212970204600F062FBC4
:1001C0000220687000F07FFA6068A168E26800F4BD
:1001D000827001F404410843217C02F40062104360
:1001E000227D01F002010843A16902F001021043DF
:1001F000227F01F40071084394F8201002F03802C5
:100200001043A26A01F080010843216802F4005201
:1002100010430860A06994F824102268000C00F0D4
:10022000040001F01001084350602068C16921F406
:100230000061C161002068600121697032BD2DE953
:10024000F843054605F15007002638780C469146DC
:100250009846012808BF022000F08F8001203870E6
:1002600000F04CFB7978012918BF02264DD1002CF3
:1002700018BFB9F1000F7DD00321797000237B6096
:100280002C63A5F83490A5F836900021A963AB87BC
:10029000E9876B642964AB68B3F5004F09D129681D
:1002A0000B6823F040030B6029680C6844F4804419
:1002B0000C6029680B685C0603D40B6843F04003AC
:1002C0000B604446E968B1F5006F696821D10029E7
:1002D00018BFB9F1010F00F0EAF9804604E0296B7C
:1002E0000A88C26000F0C8F9E88E002833D0286878
:1002F00081688A07F3D400F001FBA0EB0800A0425C
:1003000004D314F1010FEFD0032634E0002CEBD11D
:10031000FAE7002918BFB9F1010F00F0BCF98046D7
:1003200006E0296B0A780273286B411C00F0A6F9DD
:10033000E88E80B1286881688A07F2D400F0DEFA7E
:10034000A0EB0800A04203D314F1010FF0D0DBE7CB
:10035000002CEDD1D8E742462146284600F041FA6C
:1003600008B120207860A86810B900F08CF9009AD4
:10037000786800B1012600F0A1F8BDE8F2832DE90C
:10038000F8430446002660680D469146984604F1FD
:100390005007B0F5827F04BFA068002809D1042669
:1003A0007E70CDF800804B462A46204600F08CF83F
:1003B00082E03878012808BF02207DD00120387003
:1003C00000F09CFA7978012918BF022672D1002D1D
:1003D00018BFB9F1000F6CD00421797000227A6047
:1003E000A563A4F83C90A4F83E9000212163A28666
:1003F000E18622646164A268B2F5004F09D12168E8
:100400000A6822F040020A6021680B6823F48043E6
:100410000B6021680A68530603D40A6842F0400260
:100420000A600546E168002926D108E0007BA16B3F
:100430000870A06B421CA263E08F411EE187E08F31
:1004400068B320688168CA07F0D400F057FA401BEF
:10045000404504D318F1010FF1D003262AE0B8F18A
:10046000000FECD1F9E7C068A16B0880A06B821C7B
:10047000A263E08F411EE187E08F80B12068816830
:10048000CA07F0D400F03AFA401B404503D318F1F4
:10049000010FF1D0E1E7B8F1000FEDD1DDE72A4619
:1004A0004146204600F075F908B120207860786850
:1004B00000B1012600F002F8BDE8F2830120787057
:1004C00000213970304670472DE9FC47054605F19B
:1004D00050070C46387891464FF001084FF0000A5B
:1004E000012808BF022000F0C5801E4687F8008062
:1004F00000F004FA7B78012B0AD06968B1F5827F9D
:1005000002BFA9680029042B02D04FF0020AACE018
:10051000002C18BFB9F1000F00D00EB9C246A4E0FC
:100520007B78042B1CBF4FF0050C87F801C000231B
:100530007B60C5F83890EE87AE872C63EE86AE867A
:100540002B646B6429680C68630603D40C6844F060
:1005500040040C60E9680A9CB1F5006F696838D105
:10056000002918BF012E00F0A2F88146E88E00286D
:1005700004BFE88F002868D02968886882070BD5F7
:10058000E88E002818BFB8F1000F05D0286B02884C
:10059000CA60D04600F070F829688868C2070CD598
:1005A000E88F50B1C868A96B08804FF00108A86BAC
:1005B000821CAA63E88F411EE98700F09FF9A0EB37
:1005C0000900A042D2D314F1010FCFD04FF0030A9B
:1005D0004BE0002918BF012E00F05DF88146E88E3F
:1005E000002804BFE88F00282FD029688868820778
:1005F0000DD5E88E002818BFB8F1000F07D0286B82
:1006000002780A73D046286B411C00F037F829683D
:100610008868C2070CD5E88F50B1C868A96B08700C
:100620004FF00108A86B421CAA63E88F411EE987BE
:1006300000F064F9A0EB0900A04203D314F1010F0C
:10064000CDD0C3E7002CCAD1C0E74A462146284690
:1006500000F0C7F820B120204FF0010A786004E0D4
:10066000A86810B900F00FF80098012179700020F7
:1006700038705046BDE8F687286B811C2963E88EE8
:10068000411EE9867047002100912968CA680092DE
:1006900089680091704709D1296B2B680A781A7311
:1006A000296B4A1C2A63E98E4A1EEA86704709D1E3
:1006B000296B2B680A88DA60296B8A1C2A63E98E09
:1006C0004A1EEA8670472068016821F040010160F7
:1006D00070472DE9F843089C05460E4690461F4694
:1006E00000F00CF9381A241800F008F98146544833
:1006F00001684901090D6143009105E0009800B9C6
:1007000000240098401E0090286881683140B14262
:100710000CBF01200020404532D017F1010FF3D06B
:1007200000F0ECF8A0EB0900A04201D2002CE5D1CA
:100730002868416821F0E00141606868B0F5827F77
:1007400008D1A868B0F5004F18BFB0F5806F01D18F
:1007500000F019F8A86AB0F5005F09D128680168AF
:1007600021F4005101602868026842F400520260DE
:1007700005F150000121417000220270032000E0C9
:100780000020BDE8F2832868016821F04001016083
:1007900070471CB504460B466068B0F5827F08D1EF
:1007A000A068B0F5004F18BFB0F5806F05D1FFF716
:1007B0008AFF6068B0F5827F07D1A0680092B0F52B
:1007C000806F03D00022802102E0009200220121EC
:1007D0002046FFF77EFF10B100F02BF816BD002079
:1007E00016BD7CB504461648164E0B460168182502
:1007F000B1FBF5F5B5FBF6F64FF47A70464300967B
:100800006168B1F5827F09D10092802100222046E3
:10081000FFF75FFF58B100F00CF876BD009830B1DB
:100820000098401E0090216888680106F6D40020D8
:1008300076BD606D40F020006065032070470000C9
:100840000C00002040420F0080B528482849016074
:100850004FF4827238214260C16100234FF400726C
:100860000A218360C3600361436182610362436262
:100870008362C162FFF788FC18B1BDE8014000F057
:10088000DDB801BD10B586B004461422002101A8D0
:1008900000F0E0F821681648814224D10022154872
:1008A0000092016941F400410161016901F40041D4
:1008B0000091009900924FF4E051036843F0040363
:1008C00003600222006800F00400009000980A48CB
:1008D00001910292002103910322062105910492C5
:1008E00001A900F0C1F806B010BD00001000002002
:1008F000003C004030380240000802400148406897
:10090000704700BF000000203EB500F0B1F900F0D4
:100910003CF800F0C7F9FFF797FF434C434A4449BE
:100920000123204600F006FA94F82000E0B90121E6
:10093000009100F022F800BF41A500F018F8A8B11E
:10094000022001210290019100914FF430231422E2
:100950002946204600F064FA0120009000F00DF8CE
:1009600000F005F8002801D000F068F8FEE7142236
:10097000294604F1240000F0E1BB4FF43023142297
:1009800004F12401204600F0FCBA80B592B0302179
:1009900006A800F0FDFB142101A800F0F9FB0020DF
:1009A00000904FF480332348016841F0805101608A
:1009B0000021006800F08050009000981E480091CF
:1009C000026842F4804202600122006800F4804024
:1009D000009006A80099069202214FF480020C9123
:1009E0000D920421A8220E910F9202210422079356
:1009F0001091119200F0D0FB08B100F01FF8022115
:100A00000291002203920F204FF4A0510190049113
:100A10004FF480520592052101A800F04DFD08B168
:100A200000F00CF813B000BD68000020000C02407C
:100A300010000020403802400070004072B6FEE70F
:100A400001020304050607080900414243444546E4
:100A50004748494A10B5044610460A460146204612
:100A600000F0BAFD204610BD2DE9F84F0D460026D6
:100A70007449754A0F23044601202F68B04000EAEC
:100A80000708804540F0D4804FEA460C032707FA58
:100A90000CF76FEA070E6F6807F00309B9F1010F51
:100AA0001CBF07F00307022F12D1A768D5F80C90DE
:100AB0000EEA070709FA0CF949EA0707A760676811
:100AC00027EA00006F68C7F30017B740384360603B
:100AD000B0002F7907F00307032F21D0E768D5F87E
:100AE00008900EEA070709FA0CF949EA0707E760D8
:100AF0002F7907F00307022F12D1F70804EB8707BD
:100B000000F01C09D7F820A003FA09FB2AEA0B0A17
:100B1000D5F810B00BFA09F949EA0A09C7F820908C
:100B200027680EEA070E2F7907F0030707FA0CF77C
:100B300047EA0E0CC4F800C06F6817F4403F77D046
:100B40004FF0000ECDF800E04FEA960C176847F41E
:100B50008047176000F00C00D2F800E03B4F0EF425
:100B6000804ECDF800E0DDF800E057F82CE003FA05
:100B700000F72EEA070E364FBC4208BF002722D0EE
:100B8000344FBC4208BF01271DD0334FBC4208BFC1
:100B9000022718D0314FBC4208BF032713D0304F73
:100BA000BC4208BF04270ED02E4FBC4208BF052709
:100BB00009D02D4FBC4208BF062704D02B4FBC42A2
:100BC0000CBF0727082707FA00F040EA0E00DFF8FD
:100BD0007CE04EF82C006FEA0800D1F808C06F687E
:100BE00000EA0C0CFF0248BF48EA0C0CC1F808C030
:100BF000D1F80CC06F6800EA0C0CBF0248BF48EA8D
:100C00000C0CC1F80CC0D1F804C06F6800EA0C0CE1
:100C1000BF0348BF48EA0C0CC1F804C0D1F800C0BB
:100C20006F6800EA0C00FF0348BF48EA0000086054
:100C3000761C0F2E7FF620AFBDE8F18F02B90904B4
:100C400081617047003C014044380240083801404F
:100C5000000002400004024000080240000C024074
:100C6000001002400014024000180240001C024024
:100C700080B50B48016841F400710160026842F4DC
:100C800080620260016841F480710160032000F01D
:100C9000E4FC0F2000F028FD00F046FD002002BD1E
:100CA000003C024010B586B01422002101A8FFF7D5
:100CB000D1FE00211D481E4C0091026842F08002C6
:100CC00002600022016801F0800100910099009209
:100CD000036843F001030360016801F00101009122
:100CE00000990092036843F004030360016801F077
:100CF00004010091009900920121036843F0080368
:100D00000360006800F00800009000982046FFF79C
:100D100095FF012101910291032200210391049288
:100D200001A92046FFF7A0FE06B010BD30380240F2
:100D3000000C0240F8B504460D4616461F466420D6
:100D400000F012FD256101202169DFF8AC2384F851
:100D5000200066612783086890421FBFDFF89C135C
:100D60008842DFF89C23904201D00120F2BD64212B
:100D7000204600F0B0F978B900F081F99F2000F02A
:100D800047F8206964230522214600F0EBFC00F0BF
:100D90009CF9002184F8201020781F2835D12046A6
:100DA00000F07DF96079C10722D43D202A21A0728C
:100DB000E1728020A621207361732046642100F037
:100DC0008AF910BB00F05BF964232069042204F166
:100DD0000A0100F0C5FC00F078F90421204600F07B
:100DE0007AF990B9204600F05AF96079C1070CD51C
:100DF0006078262809D14FF48051E1610A2000F083
:100E0000B3FC002084F82000F2BD94F82000F2BD6D
:100E1000A07264232069012204F10A0100F0A0BC41
:100E20002DE9F84F0646914601200D4686F8200030
:100E3000B9F1000F18BF002D14D0DDF828805FEA4B
:100E4000080018BF09F102091FFA89FA40F20120CF
:100E5000824507DA1F46F90504D1F069401E4002B9
:100E6000B84201D201206DE06421304600F033F930
:100E7000002878D11FFA89FB584600F077FC04005F
:100E800071D0B8F1000F11D0ABF10202294600F089
:100E90000BFDA9F1020189B2284600F035F904EBF7
:100EA0000A01020A01F8022D487003E05A46294659
:100EB00000F0FAFC70690B9D8169328B41EA0241B6
:100EC00081618420B0726423306900F04FF8002003
:100ED000F0713072707200F04EF8306964231FFABE
:100EE00089F2214600F03CFC204600F0E9FC7269E2
:100EF000318B93690B4393612800946944EA014460
:100F0000946119BF8321B1728820B0720C9C306942
:100F1000642300F02BF8380CF071390A31727772C3
:100F200000F029F871698A69308B0243012C8A61CB
:100F30000AD1002D0CBF0420192000F015FC002060
:100F400086F82000BDE8F28F022CF8D12DB11921CE
:100F5000304600F0C0F830B9F1E70421304600F027
:100F6000BAF80028EBD096F82000EBE7012206F152
:100F70000A0100F0F5BB642330690322F11D00F083
:100F8000EFBB2DE9F84F04460120154684F82000F8
:100F9000002A18BF5FEA010811D00A9E300018BF6E
:100FA000AD1C1FFA85FA40F20120824507DA1F4680
:100FB000F90504D1E069401E4002B84201D2012087
:100FC0005BE06421204600F086F838B91FFA85FB03
:100FD000584600F0CBFB5FEA000902D194F82000EC
:100FE0004BE000F04CF8D220FFF712FF390CE17112
:100FF000380A20726772642320690322E11D00F021
:10100000AFFB0020FFF704FF20696423FFF703FF15
:1010100020696423FFF7FFFE20696423FFF7FBFECE
:1010200020696423AAB2494600F09CFB00F04DF809
:10103000C6B1A91E89B2484600F066F809EB0A015C
:10104000C0F3072311F8022D9A4202BF497800F03D
:10105000FF00814203D0484600F032FCBEE7ABF10E
:10106000020200E05A464946404600F01DFC484650
:1010700000F026FC002084F82000BDE8F28F6069B3
:101080008169228B41EA02418161704710B50446B3
:1010900000F005F86079C00980F0010010BD10B5BE
:1010A00004466423FFF7EBFFD720A07201222069DA
:1010B00004F10A0100F054FB206964230222611D3F
:1010C00000F050FB00F001F810BD61698A69208BC7
:1010D00002438A617047F8B50A4E376804460D46E8
:1010E0003068C01BA84205D22046FFF7CFFF00287A
:1010F000F6D1F2BD0120F2BD0030014000380040C1
:10110000003C00400400002030B503464FF6FF705D
:10111000002400E0641CA2B28A420ED29A5C5040C5
:1011200008224510C00751BFA8B285F4204080F0C6
:10113000010080B2521EF4D1ECE730BD8AB10B78C9
:1011400090F800C09C4506D110F8013B4BB1491CFA
:10115000521EF4D105E002D24FF0FF30704701205B
:101160007047002070470EE0026843680244083070
:101170005FEAC37C44BF4B445B1E52F804CB43F888
:1011800004CB091FF9D150F8041B0029ECD170479A
:10119000002200F097BB00002DE9F843040016D0B0
:1011A0002078DFF80463C10713D5B06800F00C00A5
:1011B000042807D0B06800F00C0008283DD1706802
:1011C00041023AD53068810303D56068002800F0F9
:1011D00065812078B54F810719D5B06810F00C0FE4
:1011E00007D0B06800F00C0008285BD1706841029D
:1011F00058D43068810703D5E068012840F04E815B
:101200003168206921F0F80141EAC001316021789C
:10121000080779D56069A649002868D001220A60CC
:10122000FFF76CFB0546706F81076DD4FFF766FB17
:10123000401B0228F7D9032033E16068B0F5803FF6
:1012400004D1306840F48030306011E0B0F5A02F58
:10125000306806D140F480203060316841F480313C
:1012600005E020F480303060316821F48021316065
:10127000606858B1FFF742FB054630688103A8D487
:10128000FFF73CFB401B6528F7D3D4E7FFF736FB9D
:101290000546306881039CD5FFF730FB401B65286D
:1012A000F7D3C8E7E068A8B101213960FFF726FB52
:1012B00005463068810705D4FFF720FB401B022854
:1012C000F7D9B8E73068216920F0F80040EAC1009A
:1012D00030609CE73860FFF711FB054631688807EE
:1012E00095D5FFF70BFB401B0228F7D9A3E7086051
:1012F000FFF704FB0546706F810705D5FFF7FEFA7F
:10130000401B0228F7D996E72078410760D5306C5A
:101310000025C1000BD4002000900125316C41F064
:1013200080513164306C00F0805000900098DFF8FC
:101330008481D8F80000C10513D4D8F8000040F427
:101340008070C8F80000FFF7D9FA8146D8F800008D
:10135000C10506D4FFF7D2FAA0EB09000228F5D99F
:1013600069E7A068012805D00528306F06D140F054
:1013700004003067306F40F0010005E04008400095
:101380003067306F20F00400306741F28938A06880
:1013900060B1FFF7B3FA8146306F810713D4FFF7CE
:1013A000ADFAA0EB09004045F6D344E7FFF7A6FAF3
:1013B0008146306F810706D5FFF7A0FAA0EB090040
:1013C0004045F6D337E71DB1306C20F080503064D3
:1013D000A069002864D0B16801F00C0108293AD056
:1013E00002282AD100203866FFF788FA05463068BF
:1013F000810105D5FFF782FA401B0228F7D91AE7C9
:10140000E069216A626A0843A16A490840EA8210D9
:10141000491E40EA0140E16A40EA01607060012033
:101420003866FFF76BFA04463068810138D4FFF75D
:1014300065FA001B0228F7D9FDE600203866FFF7A1
:101440005DFA0446306881012AD5FFF757FA001B80
:101450000228F7D9EFE6012820D07068E26900F48D
:101460008001914202BF00F03F01226A914201BF18
:1014700047F6C0710140626AB1EB821F0ED1A26AC9
:1014800000F4403101F580315208B1EB024F02BF48
:1014900000F07060E16AB0EB016F01D0012000E064
:1014A0000020BDE8F28300BF003802400000474240
:1014B000800E4742007000402DE9F04104000F46C5
:1014C00054D0404E306800F00700B84202D200F01D
:1014D00073F84BD120683C4D810712D5400703D5E6
:1014E000A96841F4E051A9602078010703D5A868F4
:1014F00040F46040A860A968A06821F0F0010143B1
:10150000A9602178C80729D56068012802D1296817
:101510008A0305E0022818BF032803D129688A013D
:1015200003D423E029688A0720D5A968890840EAFE
:101530008100A860FFF7E2F98046A868616800F0C2
:101540000C00B0EB810F09D0FFF7D8F9A0EB080031
:1015500041F289318842F0D303202BE0306800F05B
:101560000700874204D200F027F801D0012021E0D3
:101570002078410705D5AA68E06822F4E0520243CA
:10158000AA602178080706D5A968206921F460417E
:1015900041EAC001A96000F0AFF9AA680B490C4B01
:1015A000C2F30312895CC84018600A48006800F062
:1015B0009BF80020BDE8F0813770316801F0070129
:1015C000B9427047003C024000380240701B0008DE
:1015D0000C0000200800002062F30F2262F31F427B
:1015E000401810F0030308D0C91A1FD3DB0748BF07
:1015F00000F8012D28BF20F8022D130030B4144646
:101600001546103928BF20E93C00FAD8490728BF01
:1016100020E90C0048BF40F8042D890028BF20F8BD
:10162000022D48BF00F8012D30BC7047C91818BF03
:1016300000F8012DCB0728BF00F8012D70470000EE
:101640000901020002D4224881547047214B02F064
:101650000F021A4402F8041C70471F4B19684FF61A
:10166000FF020002114000F4E06008431B490843F8
:101670001860704770B5184B1C68C4F3022301242E
:10168000C3F10705052D2EBF0F2504FA05F56D1EC4
:101690001E1D072E34BF0023DB1E2940994004FA8B
:1016A00003F3BDE870405B1E1A401143C8E7401EBB
:1016B000B0F1807F01D3012070470949094A486091
:1016C0000023F02010708B60072008600020704716
:1016D00000E400E018ED00E00CED00E00000FA0589
:1016E00010E000E023ED00E038B50D4D0D4B2A78F9
:1016F00004464FF47A711868B1FBF2F2B0FBF2F0D5
:10170000FFF7D5FF50B9102C08D2002221464FF028
:10171000FF30FFF7AFFFAC60002032BD012032BDCB
:10172000000000200C00002081B00020009000226A
:101730000A48416841F480414160416801F48041B8
:10174000009100990092036843F0805303600068A1
:1017500000F080500090009801B07047403802407F
:10176000FEF76DBDFEF70BBE00F0F6B810B50446EF
:10177000AFF30080204600F005F80446AFF3008088
:10178000204610BDF8B500F10F04E408E400A042C3
:101790002BD2082C04D2082402E0083000F047F8CD
:1017A000DFF800211368190005D1002007E0056863
:1017B000A5420DD2011D08680028F8D11868111D36
:1017C00000E0191D0B6883420BD01D68A542F8D3B9
:1017D00059B10B6818680838A04208D258680860E8
:1017E0000FE000F0CDF80028D7D10020F2BD181985
:1017F00008601D1D586828511E680F68361B3E6022
:101800001C60096800291DBF48680028081D0020C9
:10181000106003F10800F2BD10B5040006D0AFF36C
:101820000080204600F003F8AFF3008010BD0028D0
:1018300000D1704770B4A0F108021368072B2ED9AD
:1018400013F0070F2BD1DFF85C40616809B18A42C1
:1018500003D25160626015E00146486808B19042C9
:10186000FAD308680E18B24219D3964203D11B1856
:101870000B600A4606E0486810B1134498420ED344
:1018800050604A60506850B11368D518854206D13F
:10189000002626600168CB1813604068506070BC59
:1018A00070470000A00000204AB1000011F8013B81
:1018B000521E00F8013B1CBF11F8013BF8E77047CE
:1018C000FFF7AABF00B500BF130096469446103933
:1018D00028BFA0E80C50FAD85FEA417C28BF0CC0B2
:1018E00048BF40F8042BC90728BF20F8022B48BF87
:1018F00000F8012B00BD000030B5144C606800F00A
:101900000C00042802D0082802D01DE0104830BD89
:10191000226820680023410202F03F0204D52568B6
:101920000B49C5F3881003E020680A49C0F388100A
:10193000A1FB000100F03AF82168C1F30141491C04
:101940004900B0FBF1F030BD024830BD0438024020
:1019500000127A000024F40038B50446FEF7CEFFEA
:1019600014F1010F054602D0044801786418FEF70F
:10197000C5FF401BA042FAD331BD00BF00000020CC
:101980000749086808B1002070470648C008C00031
:1019900008600549C908C900091A0160704700BFFD
:1019A000A8000020B7040020B0060020D3BBD9B1A6
:1019B000B2F5803F5BD2022A1ED98C46B1FBF2F110
:1019C00002FB11C31B0443EA1043B3FBF2FC02FB0E
:1019D0001C3380B240EA0343B3FBF2F002FB103247
:1019E00040EA0C4000237047022A05D98446B0FB28
:1019F000F2F002FB10C270474AB105D100F00102BB
:101A000049085FEA3000704700220023704700F069
:101A100051B80B000200002100207047F7D30022CC
:101A200000237047904271EB030CF2D370B5B1FA0A
:101A300081F4B3FA83F52C1BA340C4F1200532FADC
:101A400005F63343A2405FF00046E64002E05B0843
:101A50005FEA3202841A71EB030524BF204629464F
:101A60007641F4D302000B003000002170BD70B548
:101A7000B1FA81F4B2FA82F5C4F120046419B4F128
:101A80002006DAD3B2405FF00044F440002502E0C3
:101A900052085FEA3303C61A71EB020E24BF3046C8
:101AA000714664416D41F3D302000B002000290010
:101AB00070BD0000704730B4002512E050F8042BD0
:101AC000D30744BF4A44521E091F042942F8045B4D
:101AD000FAD213468C0744BF15809B1CC90748BF28
:101AE0001D7050F8041B0029E8D130BC704700007D
:101AF00010B5074979441831064C7C44163404E08B
:101B00000A68081D114488470146A142F8D110BD5A
:101B10002C0000004C0000004EF68851CEF200016F
:101B2000086840F470000860BFF34F8FBFF36F8FF9
:101B30004FF00170E1EE100A704700007BFFFFFFDD
:101B40009C00000010000020000000001BF6FFFFBA
:101B500010000000C4000000000000200000000091
:101B60000248016841F470010160704788ED00E0AF
:101B7000000000000000000001020304060708093D
:101B800000F00DF8002801D0FFF7B2FFAFF300809E
:101B90000020AFF30080FEF7B7FE00F002F801204E
:101BA000704700F001B800000746384600F002F820
:101BB000FBE7000080B5AFF30080024A1100182057
:101BC000ABBEFBE7260002000548014603B46846A9
:101BD00080F30988AFF30080FFF79EFFFFF7D0FF87
:101BE000A5EDF5FEFEE7FEE7FEE7FEE7FEE7704740
:101BF0007047704700F000B80248416802788A18C0
:101C000042607047000000200148804701480047BB
:101C1000611B0008C91B0008010000000000000053
:101C2000100000000024F400FFF7FEBFFFF7FEBF26
:101C3000FFF7FEBFFFF7FEBFFFF7FEBFFFF7FEBFD8
:101C4000FFF7FEBFFFF7FEBFFFF7FEBFFFF7FEBFC8
:101C5000FFF7FEBFFFF7FEBFFFF7FEBFFFF7FEBFB8
:101C6000FFF7FEBFFFF7FEBFFFF7FEBFFFF7FEBFA8
:101C7000FFF7FEBFFFF7FEBFFFF7FEBFFFF7FEBF98
:101C8000FFF7FEBFFFF7FEBFFFF7FEBFFFF7FEBF88
:101C9000FFF7FEBFFFF7FEBFFFF7FEBFFFF7FEBF78
:101CA000FFF7FEBFFFF7FEBFFFF7FEBFFFF7FEBF68
:101CB000FFF7FEBFFFF7FEBFFFF7FEBFFFF7FEBF58
:101CC000FFF7FEBFFFF7FEBFFFF7FEBFFFF7FEBF48
:101CD000FFF7FEBFFFF7FEBFFFF7FEBFFFF7FEBF38
:101CE000FFF7FEBFFFF7FEBFFFF7FEBFFFF7FEBF28
:101CF000FFF7FEBFFFF7FEBFFFF7FEBFFFF7FEBF18
:101D0000FFF7FEBFFFF7FEBFFFF7FEBFFFF7FEBF07
:101D1000FFF7FEBFFFF7FEBFFFF7FEBFFFF7FEBFF7
:101D2000FFF7FEBFFFF7FEBFFFF7FEBFFFF7FEBFE7
:101D3000FFF7FEBFFFF7FEBFFFF7FEBFFFF7FEBFD7
:101D4000FFF7FEBFFFF7FEBFFFF7FEBFFFF7FEBFC7
:101D5000FFF7FEBFFFF7FEBFFFF7FEBFFFF7FEBFB7
:0C1D6000FFF7FEBFFFF7FEBFFFF7FEBF5E
:0400000508001BC90B
:00000001FF
